{
  "contractName": "Ballots",
  "abi": [
    {
      "inputs": [],
      "name": "chairperson",
      "outputs": [
        {
          "internalType": "address",
          "name": "",
          "type": "address"
        }
      ],
      "stateMutability": "view",
      "type": "function"
    },
    {
      "inputs": [
        {
          "internalType": "uint256",
          "name": "",
          "type": "uint256"
        }
      ],
      "name": "proposals",
      "outputs": [
        {
          "internalType": "bytes32",
          "name": "name",
          "type": "bytes32"
        },
        {
          "internalType": "uint256",
          "name": "voteCount",
          "type": "uint256"
        }
      ],
      "stateMutability": "view",
      "type": "function"
    },
    {
      "inputs": [
        {
          "internalType": "address",
          "name": "",
          "type": "address"
        }
      ],
      "name": "voters",
      "outputs": [
        {
          "internalType": "uint256",
          "name": "weight",
          "type": "uint256"
        },
        {
          "internalType": "bool",
          "name": "voted",
          "type": "bool"
        },
        {
          "internalType": "address",
          "name": "delegate",
          "type": "address"
        }
      ],
      "stateMutability": "view",
      "type": "function"
    },
    {
      "inputs": [
        {
          "internalType": "bytes32[]",
          "name": "proposalNames",
          "type": "bytes32[]"
        }
      ],
      "name": "registerProposalNames",
      "outputs": [],
      "stateMutability": "nonpayable",
      "type": "function"
    },
    {
      "inputs": [
        {
          "internalType": "address",
          "name": "voteAddress",
          "type": "address"
        }
      ],
      "name": "getVoted",
      "outputs": [
        {
          "internalType": "bytes32[]",
          "name": "",
          "type": "bytes32[]"
        }
      ],
      "stateMutability": "view",
      "type": "function"
    },
    {
      "inputs": [
        {
          "internalType": "address",
          "name": "voter",
          "type": "address"
        }
      ],
      "name": "registerVote",
      "outputs": [],
      "stateMutability": "nonpayable",
      "type": "function"
    },
    {
      "inputs": [
        {
          "internalType": "bytes32[]",
          "name": "proposalNames",
          "type": "bytes32[]"
        }
      ],
      "name": "voteArray",
      "outputs": [],
      "stateMutability": "nonpayable",
      "type": "function"
    },
    {
      "inputs": [
        {
          "internalType": "bytes32",
          "name": "proposalNames",
          "type": "bytes32"
        }
      ],
      "name": "vote",
      "outputs": [],
      "stateMutability": "nonpayable",
      "type": "function"
    },
    {
      "inputs": [],
      "name": "winningProposal",
      "outputs": [
        {
          "internalType": "uint256",
          "name": "winningProposal_",
          "type": "uint256"
        }
      ],
      "stateMutability": "view",
      "type": "function"
    },
    {
      "inputs": [],
      "name": "winnerName",
      "outputs": [
        {
          "internalType": "bytes32",
          "name": "winnerName_",
          "type": "bytes32"
        }
      ],
      "stateMutability": "view",
      "type": "function"
    }
  ],
  "bytecode": "0x608060405234801561001057600080fd5b50611454806100206000396000f3fe608060405234801561001057600080fd5b506004361061009e5760003560e01c8063a3ec138d11610066578063a3ec138d1461015c578063a69beaba1461018e578063ae1d4f85146101aa578063e2ba53f0146101c6578063ec2130bc146101e45761009e565b8063013cf08b146100a35780632e4176cf146100d45780635aa82fbe146100f2578063609ff1bd1461012257806360abd66014610140575b600080fd5b6100bd60048036038101906100b89190610ca5565b610200565b6040516100cb929190610cfa565b60405180910390f35b6100dc610234565b6040516100e99190610d64565b60405180910390f35b61010c60048036038101906101079190610dab565b61025a565b6040516101199190610e96565b60405180910390f35b61012a6102f4565b6040516101379190610eb8565b60405180910390f35b61015a60048036038101906101559190611058565b610381565b005b61017660048036038101906101719190610dab565b61058e565b604051610185939291906110bc565b60405180910390f35b6101a860048036038101906101a391906110f3565b6105e5565b005b6101c460048036038101906101bf9190611058565b61079e565b005b6101ce6108dd565b6040516101db9190611120565b60405180910390f35b6101fe60048036038101906101f99190610dab565b610911565b005b6003818154811061021057600080fd5b90600052602060002090600202016000915090508060000154908060010154905082565b600160009054906101000a900473ffffffffffffffffffffffffffffffffffffffff1681565b6060600260008373ffffffffffffffffffffffffffffffffffffffff1673ffffffffffffffffffffffffffffffffffffffff1681526020019081526020016000206002018054806020026020016040519081016040528092919081815260200182805480156102e857602002820191906000526020600020905b8154815260200190600101908083116102d4575b50505050509050919050565b600080600090506000805b60038054905081101561037b5782600382815481106103215761032061113b565b5b9060005260206000209060020201600101541115610368576003818154811061034d5761034c61113b565b5b90600052602060002090600202016001015492508093508091505b808061037390611199565b9150506102ff565b50505090565b6000600260003373ffffffffffffffffffffffffffffffffffffffff1673ffffffffffffffffffffffffffffffffffffffff1681526020019081526020016000209050600081600001540361040b576040517f08c379a00000000000000000000000000000000000000000000000000000000081526004016104029061123e565b60405180910390fd5b8060010160009054906101000a900460ff161561045d576040517f08c379a0000000000000000000000000000000000000000000000000000000008152600401610454906112aa565b60405180910390fd5b60018160010160006101000a81548160ff02191690831515021790555060005b82518110156105895760005b60038054905081101561057557600381815481106104aa576104a961113b565b5b9060005260206000209060020201600001548483815181106104cf576104ce61113b565b5b60200260200101510361056257826002018483815181106104f3576104f261113b565b5b6020026020010151908060018154018082558091505060019003906000526020600020016000909190919091505582600001546003828154811061053a5761053961113b565b5b9060005260206000209060020201600101600082825461055a91906112ca565b925050819055505b808061056d90611199565b915050610489565b50808061058190611199565b91505061047d565b505050565b60026020528060005260406000206000915090508060000154908060010160009054906101000a900460ff16908060010160019054906101000a900473ffffffffffffffffffffffffffffffffffffffff16905083565b6000600260003373ffffffffffffffffffffffffffffffffffffffff1673ffffffffffffffffffffffffffffffffffffffff1681526020019081526020016000209050600081600001540361066f576040517f08c379a00000000000000000000000000000000000000000000000000000000081526004016106669061123e565b60405180910390fd5b8060010160009054906101000a900460ff16156106c1576040517f08c379a00000000000000000000000000000000000000000000000000000000081526004016106b8906112aa565b60405180910390fd5b60018160010160006101000a81548160ff02191690831515021790555060005b60038054905081101561079957600381815481106107025761070161113b565b5b9060005260206000209060020201600001548303610786578160020183908060018154018082558091505060019003906000526020600020016000909190919091505581600001546003828154811061075e5761075d61113b565b5b9060005260206000209060020201600101600082825461077e91906112ca565b925050819055505b808061079190611199565b9150506106e1565b505050565b33600160006101000a81548173ffffffffffffffffffffffffffffffffffffffff021916908373ffffffffffffffffffffffffffffffffffffffff160217905550600160026000600160009054906101000a900473ffffffffffffffffffffffffffffffffffffffff1673ffffffffffffffffffffffffffffffffffffffff1673ffffffffffffffffffffffffffffffffffffffff1681526020019081526020016000206000018190555060005b81518110156108d957600360405180604001604052808484815181106108755761087461113b565b5b60200260200101518152602001600081525090806001815401808255809150506001900390600052602060002090600202016000909190919091506000820151816000015560208201518160010155505080806108d190611199565b91505061084c565b5050565b600060036108e96102f4565b815481106108fa576108f961113b565b5b906000526020600020906002020160000154905090565b600160009054906101000a900473ffffffffffffffffffffffffffffffffffffffff1673ffffffffffffffffffffffffffffffffffffffff163373ffffffffffffffffffffffffffffffffffffffff16146109a1576040517f08c379a000000000000000000000000000000000000000000000000000000000815260040161099890611392565b60405180910390fd5b600260008273ffffffffffffffffffffffffffffffffffffffff1673ffffffffffffffffffffffffffffffffffffffff16815260200190815260200160002060010160009054906101000a900460ff1615610a31576040517f08c379a0000000000000000000000000000000000000000000000000000000008152600401610a28906113fe565b60405180910390fd5b6000600260008373ffffffffffffffffffffffffffffffffffffffff1673ffffffffffffffffffffffffffffffffffffffff1681526020019081526020016000206000015414610a8057600080fd5b6001600260008373ffffffffffffffffffffffffffffffffffffffff1673ffffffffffffffffffffffffffffffffffffffff168152602001908152602001600020600001819055506000600260008373ffffffffffffffffffffffffffffffffffffffff1673ffffffffffffffffffffffffffffffffffffffff1681526020019081526020016000209080600181540180825580915050600190039060005260206000209060030201600090919091909150600082015481600001556001820160009054906101000a900460ff168160010160006101000a81548160ff0219169083151502179055506001820160019054906101000a900473ffffffffffffffffffffffffffffffffffffffff168160010160016101000a81548173ffffffffffffffffffffffffffffffffffffffff021916908373ffffffffffffffffffffffffffffffffffffffff1602179055506002820181600201908054610be6929190610bec565b50505050565b828054828255906000526020600020908101928215610c2d5760005260206000209182015b82811115610c2c578254825591600101919060010190610c11565b5b509050610c3a9190610c3e565b5090565b5b80821115610c57576000816000905550600101610c3f565b5090565b6000604051905090565b600080fd5b600080fd5b6000819050919050565b610c8281610c6f565b8114610c8d57600080fd5b50565b600081359050610c9f81610c79565b92915050565b600060208284031215610cbb57610cba610c65565b5b6000610cc984828501610c90565b91505092915050565b6000819050919050565b610ce581610cd2565b82525050565b610cf481610c6f565b82525050565b6000604082019050610d0f6000830185610cdc565b610d1c6020830184610ceb565b9392505050565b600073ffffffffffffffffffffffffffffffffffffffff82169050919050565b6000610d4e82610d23565b9050919050565b610d5e81610d43565b82525050565b6000602082019050610d796000830184610d55565b92915050565b610d8881610d43565b8114610d9357600080fd5b50565b600081359050610da581610d7f565b92915050565b600060208284031215610dc157610dc0610c65565b5b6000610dcf84828501610d96565b91505092915050565b600081519050919050565b600082825260208201905092915050565b6000819050602082019050919050565b610e0d81610cd2565b82525050565b6000610e1f8383610e04565b60208301905092915050565b6000602082019050919050565b6000610e4382610dd8565b610e4d8185610de3565b9350610e5883610df4565b8060005b83811015610e89578151610e708882610e13565b9750610e7b83610e2b565b925050600181019050610e5c565b5085935050505092915050565b60006020820190508181036000830152610eb08184610e38565b905092915050565b6000602082019050610ecd6000830184610ceb565b92915050565b600080fd5b6000601f19601f8301169050919050565b7f4e487b7100000000000000000000000000000000000000000000000000000000600052604160045260246000fd5b610f2182610ed8565b810181811067ffffffffffffffff82111715610f4057610f3f610ee9565b5b80604052505050565b6000610f53610c5b565b9050610f5f8282610f18565b919050565b600067ffffffffffffffff821115610f7f57610f7e610ee9565b5b602082029050602081019050919050565b600080fd5b610f9e81610cd2565b8114610fa957600080fd5b50565b600081359050610fbb81610f95565b92915050565b6000610fd4610fcf84610f64565b610f49565b90508083825260208201905060208402830185811115610ff757610ff6610f90565b5b835b81811015611020578061100c8882610fac565b845260208401935050602081019050610ff9565b5050509392505050565b600082601f83011261103f5761103e610ed3565b5b813561104f848260208601610fc1565b91505092915050565b60006020828403121561106e5761106d610c65565b5b600082013567ffffffffffffffff81111561108c5761108b610c6a565b5b6110988482850161102a565b91505092915050565b60008115159050919050565b6110b6816110a1565b82525050565b60006060820190506110d16000830186610ceb565b6110de60208301856110ad565b6110eb6040830184610d55565b949350505050565b60006020828403121561110957611108610c65565b5b600061111784828501610fac565b91505092915050565b60006020820190506111356000830184610cdc565b92915050565b7f4e487b7100000000000000000000000000000000000000000000000000000000600052603260045260246000fd5b7f4e487b7100000000000000000000000000000000000000000000000000000000600052601160045260246000fd5b60006111a482610c6f565b91507fffffffffffffffffffffffffffffffffffffffffffffffffffffffffffffffff82036111d6576111d561116a565b5b600182019050919050565b600082825260208201905092915050565b7f486173206e6f20726967687420746f20766f7465000000000000000000000000600082015250565b60006112286014836111e1565b9150611233826111f2565b602082019050919050565b600060208201905081810360008301526112578161121b565b9050919050565b7f416c726561647920766f7465642e000000000000000000000000000000000000600082015250565b6000611294600e836111e1565b915061129f8261125e565b602082019050919050565b600060208201905081810360008301526112c381611287565b9050919050565b60006112d582610c6f565b91506112e083610c6f565b9250827fffffffffffffffffffffffffffffffffffffffffffffffffffffffffffffffff038211156113155761131461116a565b5b828201905092915050565b7f4f6e6c79206368616972706572736f6e2063616e20676976652072696768742060008201527f746f20766f74652e000000000000000000000000000000000000000000000000602082015250565b600061137c6028836111e1565b915061138782611320565b604082019050919050565b600060208201905081810360008301526113ab8161136f565b9050919050565b7f54686520766f74657220616c726561647920766f7465642e0000000000000000600082015250565b60006113e86018836111e1565b91506113f3826113b2565b602082019050919050565b60006020820190508181036000830152611417816113db565b905091905056fea2646970667358221220c0dc8de89011504a23c74d30ca7a2c04f248702f365699407e8b5a8d9c062ff664736f6c634300080d0033",
  "immutableReferences": {},
  "source": "// SPDX-License-Identifier: GPL-3.0\r\npragma solidity >=0.7.0 <0.9.0;\r\n\r\ncontract Ballots {\r\n    struct Voter {\r\n        uint256 weight; // weight is accumulated by delegation\r\n        bool voted; // if true, that person already voted\r\n        address delegate; // person delegated to\r\n        bytes32[] vote; // index of the voted proposal\r\n    }\r\n\r\n    struct Proposal {\r\n        bytes32 name;\r\n        uint256 voteCount;\r\n    }\r\n\r\n    Voter[] voterArr;\r\n    address public chairperson;\r\n    mapping(address => Voter) public voters;\r\n\r\n    Proposal[] public proposals;\r\n\r\n    function registerProposalNames(bytes32[] memory proposalNames) public {\r\n        // register Proposal function\r\n        chairperson = msg.sender;\r\n        voters[chairperson].weight = 1;\r\n        for (uint256 i = 0; i < proposalNames.length; i++) {\r\n            proposals.push(Proposal({name: proposalNames[i], voteCount: 0}));\r\n        }\r\n    }\r\n\r\n    function getVoted(address voteAddress) public view returns(bytes32[] memory ){\r\n       return voters[voteAddress].vote;\r\n    }\r\n\r\n    function registerVote(address voter) external {\r\n        // register voter function\r\n        require(\r\n            msg.sender == chairperson,\r\n            \"Only chairperson can give right to vote.\"\r\n        );\r\n        require(!voters[voter].voted, \"The voter already voted.\");\r\n        require(voters[voter].weight == 0);\r\n\r\n        voters[voter].weight = 1;\r\n        voterArr.push(voters[voter]);\r\n    }\r\n\r\n    function voteArray(bytes32[] memory proposalNames) public {\r\n        // vote funtion for voters\r\n        Voter storage sender = voters[msg.sender];\r\n        require(sender.weight != 0, \"Has no right to vote\");\r\n        require(!sender.voted, \"Already voted.\");\r\n\r\n        sender.voted = true;\r\n        for (uint256 j = 0; j < proposalNames.length; j++) {\r\n            for (uint256 i = 0; i < proposals.length; i++) {\r\n                if (proposalNames[j] == proposals[i].name) {\r\n                    sender.vote.push(proposalNames[j]);\r\n                    proposals[i].voteCount += sender.weight;\r\n                }\r\n            }\r\n        }\r\n    }\r\n\r\n    function vote(bytes32 proposalNames) public {\r\n        // vote funtion for voters\r\n        Voter storage sender = voters[msg.sender];\r\n        require(sender.weight != 0, \"Has no right to vote\");\r\n        require(!sender.voted, \"Already voted.\");\r\n\r\n        sender.voted = true;\r\n        for (uint256 i = 0; i < proposals.length; i++) {\r\n            if (proposalNames == proposals[i].name) {\r\n                sender.vote.push(proposalNames);\r\n                proposals[i].voteCount += sender.weight;\r\n            }\r\n        }\r\n    }\r\n\r\n    function winningProposal() public view returns (uint256 winningProposal_) {\r\n        uint256 winningVoteCount = 0;\r\n        uint256 temp = 0;\r\n        for (uint256 p = 0; p < proposals.length; p++) {\r\n            if (proposals[p].voteCount > winningVoteCount) {\r\n                winningVoteCount = proposals[p].voteCount;\r\n                winningProposal_ = p;\r\n                temp = p;\r\n            }\r\n        }\r\n\r\n        return winningProposal_;\r\n    }\r\n\r\n    function winnerName() external view returns (bytes32 winnerName_) {\r\n        winnerName_ = proposals[winningProposal()].name;\r\n        return winnerName_;\r\n    }\r\n}\r\n",
  "sourcePath": "C:\\Users\\nvvlu\\OneDrive\\My tnh\\serverBackEnd\\client\\contracts\\Ballots.sol",
  "compiler": {
    "name": "solc",
    "version": "0.8.13+commit.abaa5c0e.Emscripten.clang"
  },
  "schemaVersion": "3.4.10",
  "updatedAt": "2022-11-12T01:42:30.271Z",
  "devdoc": {
    "kind": "dev",
    "methods": {},
    "version": 1
  },
  "userdoc": {
    "kind": "user",
    "methods": {},
    "version": 1
  }
}